{
  "contractName": "SupplyChain",
  "abi": [
    {
      "constant": false,
      "inputs": [
        {
          "name": "account",
          "type": "address"
        }
      ],
      "name": "addConsumer",
      "outputs": [],
      "payable": false,
      "stateMutability": "nonpayable",
      "type": "function"
    },
    {
      "constant": true,
      "inputs": [
        {
          "name": "account",
          "type": "address"
        }
      ],
      "name": "isRetailer",
      "outputs": [
        {
          "name": "",
          "type": "bool"
        }
      ],
      "payable": false,
      "stateMutability": "view",
      "type": "function"
    },
    {
      "constant": false,
      "inputs": [],
      "name": "renounceConsumer",
      "outputs": [],
      "payable": false,
      "stateMutability": "nonpayable",
      "type": "function"
    },
    {
      "constant": false,
      "inputs": [],
      "name": "renounceDistributor",
      "outputs": [],
      "payable": false,
      "stateMutability": "nonpayable",
      "type": "function"
    },
    {
      "constant": false,
      "inputs": [],
      "name": "renounceOwnership",
      "outputs": [],
      "payable": false,
      "stateMutability": "nonpayable",
      "type": "function"
    },
    {
      "constant": false,
      "inputs": [
        {
          "name": "account",
          "type": "address"
        }
      ],
      "name": "addDistributor",
      "outputs": [],
      "payable": false,
      "stateMutability": "nonpayable",
      "type": "function"
    },
    {
      "constant": false,
      "inputs": [
        {
          "name": "account",
          "type": "address"
        }
      ],
      "name": "addFarmer",
      "outputs": [],
      "payable": false,
      "stateMutability": "nonpayable",
      "type": "function"
    },
    {
      "constant": false,
      "inputs": [],
      "name": "renounceFarmer",
      "outputs": [],
      "payable": false,
      "stateMutability": "nonpayable",
      "type": "function"
    },
    {
      "constant": true,
      "inputs": [
        {
          "name": "account",
          "type": "address"
        }
      ],
      "name": "isConsumer",
      "outputs": [
        {
          "name": "",
          "type": "bool"
        }
      ],
      "payable": false,
      "stateMutability": "view",
      "type": "function"
    },
    {
      "constant": true,
      "inputs": [],
      "name": "owner",
      "outputs": [
        {
          "name": "",
          "type": "address"
        }
      ],
      "payable": false,
      "stateMutability": "view",
      "type": "function"
    },
    {
      "constant": false,
      "inputs": [
        {
          "name": "account",
          "type": "address"
        }
      ],
      "name": "addRetailer",
      "outputs": [],
      "payable": false,
      "stateMutability": "nonpayable",
      "type": "function"
    },
    {
      "constant": true,
      "inputs": [
        {
          "name": "account",
          "type": "address"
        }
      ],
      "name": "isDistributor",
      "outputs": [
        {
          "name": "",
          "type": "bool"
        }
      ],
      "payable": false,
      "stateMutability": "view",
      "type": "function"
    },
    {
      "constant": true,
      "inputs": [],
      "name": "isOwner",
      "outputs": [
        {
          "name": "",
          "type": "bool"
        }
      ],
      "payable": false,
      "stateMutability": "view",
      "type": "function"
    },
    {
      "constant": true,
      "inputs": [
        {
          "name": "account",
          "type": "address"
        }
      ],
      "name": "isFarmer",
      "outputs": [
        {
          "name": "",
          "type": "bool"
        }
      ],
      "payable": false,
      "stateMutability": "view",
      "type": "function"
    },
    {
      "constant": false,
      "inputs": [],
      "name": "renounceRetailer",
      "outputs": [],
      "payable": false,
      "stateMutability": "nonpayable",
      "type": "function"
    },
    {
      "constant": false,
      "inputs": [
        {
          "name": "newOwner",
          "type": "address"
        }
      ],
      "name": "transferOwnership",
      "outputs": [],
      "payable": false,
      "stateMutability": "nonpayable",
      "type": "function"
    },
    {
      "inputs": [],
      "payable": true,
      "stateMutability": "payable",
      "type": "constructor"
    },
    {
      "anonymous": false,
      "inputs": [
        {
          "indexed": false,
          "name": "upc",
          "type": "uint256"
        }
      ],
      "name": "Harvested",
      "type": "event"
    },
    {
      "anonymous": false,
      "inputs": [
        {
          "indexed": false,
          "name": "upc",
          "type": "uint256"
        }
      ],
      "name": "Processed",
      "type": "event"
    },
    {
      "anonymous": false,
      "inputs": [
        {
          "indexed": false,
          "name": "upc",
          "type": "uint256"
        }
      ],
      "name": "Packed",
      "type": "event"
    },
    {
      "anonymous": false,
      "inputs": [
        {
          "indexed": false,
          "name": "upc",
          "type": "uint256"
        }
      ],
      "name": "ForSale",
      "type": "event"
    },
    {
      "anonymous": false,
      "inputs": [
        {
          "indexed": false,
          "name": "upc",
          "type": "uint256"
        }
      ],
      "name": "Sold",
      "type": "event"
    },
    {
      "anonymous": false,
      "inputs": [
        {
          "indexed": false,
          "name": "upc",
          "type": "uint256"
        }
      ],
      "name": "Shipped",
      "type": "event"
    },
    {
      "anonymous": false,
      "inputs": [
        {
          "indexed": false,
          "name": "upc",
          "type": "uint256"
        }
      ],
      "name": "Received",
      "type": "event"
    },
    {
      "anonymous": false,
      "inputs": [
        {
          "indexed": false,
          "name": "upc",
          "type": "uint256"
        }
      ],
      "name": "Purchased",
      "type": "event"
    },
    {
      "anonymous": false,
      "inputs": [
        {
          "indexed": false,
          "name": "account",
          "type": "address"
        }
      ],
      "name": "ConsumerAdded",
      "type": "event"
    },
    {
      "anonymous": false,
      "inputs": [
        {
          "indexed": false,
          "name": "account",
          "type": "address"
        }
      ],
      "name": "ConsumerRemoved",
      "type": "event"
    },
    {
      "anonymous": false,
      "inputs": [
        {
          "indexed": false,
          "name": "account",
          "type": "address"
        }
      ],
      "name": "RetailerAdded",
      "type": "event"
    },
    {
      "anonymous": false,
      "inputs": [
        {
          "indexed": false,
          "name": "account",
          "type": "address"
        }
      ],
      "name": "RetailerRemoved",
      "type": "event"
    },
    {
      "anonymous": false,
      "inputs": [
        {
          "indexed": false,
          "name": "account",
          "type": "address"
        }
      ],
      "name": "DistributorAdded",
      "type": "event"
    },
    {
      "anonymous": false,
      "inputs": [
        {
          "indexed": false,
          "name": "account",
          "type": "address"
        }
      ],
      "name": "DistributorRemoved",
      "type": "event"
    },
    {
      "anonymous": false,
      "inputs": [
        {
          "indexed": true,
          "name": "account",
          "type": "address"
        }
      ],
      "name": "FarmerAdded",
      "type": "event"
    },
    {
      "anonymous": false,
      "inputs": [
        {
          "indexed": true,
          "name": "account",
          "type": "address"
        }
      ],
      "name": "FarmerRemoved",
      "type": "event"
    },
    {
      "anonymous": false,
      "inputs": [
        {
          "indexed": true,
          "name": "oldOwner",
          "type": "address"
        },
        {
          "indexed": true,
          "name": "newOwner",
          "type": "address"
        }
      ],
      "name": "TransferOwnership",
      "type": "event"
    },
    {
      "constant": false,
      "inputs": [],
      "name": "kill",
      "outputs": [],
      "payable": false,
      "stateMutability": "nonpayable",
      "type": "function"
    },
    {
      "constant": false,
      "inputs": [
        {
          "name": "_upc",
          "type": "uint256"
        },
        {
          "name": "_ownerID",
          "type": "address"
        },
        {
          "name": "_originFarmerID",
          "type": "address"
        },
        {
          "name": "_originFarmName",
          "type": "string"
        },
        {
          "name": "_originFarmInformation",
          "type": "string"
        },
        {
          "name": "_originFarmLatitude",
          "type": "string"
        },
        {
          "name": "_originFarmLongitude",
          "type": "string"
        },
        {
          "name": "_productID",
          "type": "uint256"
        },
        {
          "name": "_productNotes",
          "type": "string"
        },
        {
          "name": "_productPrice",
          "type": "uint256"
        }
      ],
      "name": "harvestItem",
      "outputs": [],
      "payable": false,
      "stateMutability": "nonpayable",
      "type": "function"
    },
    {
      "constant": false,
      "inputs": [
        {
          "name": "_upc",
          "type": "uint256"
        }
      ],
      "name": "processItem",
      "outputs": [],
      "payable": false,
      "stateMutability": "nonpayable",
      "type": "function"
    },
    {
      "constant": false,
      "inputs": [
        {
          "name": "_upc",
          "type": "uint256"
        }
      ],
      "name": "packItem",
      "outputs": [],
      "payable": false,
      "stateMutability": "nonpayable",
      "type": "function"
    },
    {
      "constant": false,
      "inputs": [
        {
          "name": "_upc",
          "type": "uint256"
        },
        {
          "name": "_price",
          "type": "uint256"
        }
      ],
      "name": "sellItem",
      "outputs": [],
      "payable": false,
      "stateMutability": "nonpayable",
      "type": "function"
    },
    {
      "constant": false,
      "inputs": [
        {
          "name": "_upc",
          "type": "uint256"
        }
      ],
      "name": "buyItem",
      "outputs": [],
      "payable": true,
      "stateMutability": "payable",
      "type": "function"
    },
    {
      "constant": false,
      "inputs": [
        {
          "name": "_upc",
          "type": "uint256"
        }
      ],
      "name": "shipItem",
      "outputs": [],
      "payable": false,
      "stateMutability": "nonpayable",
      "type": "function"
    },
    {
      "constant": false,
      "inputs": [
        {
          "name": "_upc",
          "type": "uint256"
        }
      ],
      "name": "receiveItem",
      "outputs": [],
      "payable": false,
      "stateMutability": "nonpayable",
      "type": "function"
    },
    {
      "constant": false,
      "inputs": [
        {
          "name": "_upc",
          "type": "uint256"
        }
      ],
      "name": "purchaseItem",
      "outputs": [],
      "payable": false,
      "stateMutability": "nonpayable",
      "type": "function"
    },
    {
      "constant": true,
      "inputs": [
        {
          "name": "_upc",
          "type": "uint256"
        }
      ],
      "name": "fetchItemBufferOne",
      "outputs": [
        {
          "name": "itemSKU",
          "type": "uint256"
        },
        {
          "name": "itemUPC",
          "type": "uint256"
        },
        {
          "name": "ownerID",
          "type": "address"
        },
        {
          "name": "originFarmerID",
          "type": "address"
        },
        {
          "name": "originFarmName",
          "type": "string"
        },
        {
          "name": "originFarmInformation",
          "type": "string"
        },
        {
          "name": "originFarmLatitude",
          "type": "string"
        },
        {
          "name": "originFarmLongitude",
          "type": "string"
        }
      ],
      "payable": false,
      "stateMutability": "view",
      "type": "function"
    },
    {
      "constant": true,
      "inputs": [
        {
          "name": "_upc",
          "type": "uint256"
        }
      ],
      "name": "fetchItemBufferTwo",
      "outputs": [
        {
          "name": "itemSKU",
          "type": "uint256"
        },
        {
          "name": "itemUPC",
          "type": "uint256"
        },
        {
          "name": "productID",
          "type": "uint256"
        },
        {
          "name": "productNotes",
          "type": "string"
        },
        {
          "name": "productPrice",
          "type": "uint256"
        },
        {
          "name": "itemState",
          "type": "uint256"
        },
        {
          "name": "distributorID",
          "type": "address"
        },
        {
          "name": "retailerID",
          "type": "address"
        },
        {
          "name": "consumerID",
          "type": "address"
        }
      ],
      "payable": false,
      "stateMutability": "view",
      "type": "function"
    }
  ],
  "bytecode": "0x6080604052336000806101000a81548173ffffffffffffffffffffffffffffffffffffffff021916908373ffffffffffffffffffffffffffffffffffffffff1602179055506000809054906101000a900473ffffffffffffffffffffffffffffffffffffffff1673ffffffffffffffffffffffffffffffffffffffff16600073ffffffffffffffffffffffffffffffffffffffff167f5c486528ec3e3f0ea91181cff8116f02bfa350e03b8b6f12e00765adbb5af85c60405160405180910390a3620000da336200013e640100000000026401000000009004565b620000f433620001a8640100000000026401000000009004565b6200010e3362000232640100000000026401000000009004565b620001283362000259640100000000026401000000009004565b600160068190555060016005819055506200043b565b62000162816001620002e364010000000002620028b2179091906401000000009004565b8073ffffffffffffffffffffffffffffffffffffffff167f2e0ded4123377a3c2bc9a26f1717655a129e2f20752924d42e730ec89c83dbd060405160405180910390a250565b620001cc816002620002e364010000000002620028b2179091906401000000009004565b7fddbf200aa634dc3fb81cfd68583dd1040d1c751d335e1d86b631bde3e977fea881604051808273ffffffffffffffffffffffffffffffffffffffff1673ffffffffffffffffffffffffffffffffffffffff16815260200191505060405180910390a150565b62000256816003620002e364010000000002620028b2179091906401000000009004565b50565b6200027d816004620002e364010000000002620028b2179091906401000000009004565b7f28b26e7a3d20aedbc5f8f2ebf7da671c0491723a2b78f47a097b0e46dee0714281604051808273ffffffffffffffffffffffffffffffffffffffff1673ffffffffffffffffffffffffffffffffffffffff16815260200191505060405180910390a150565b600073ffffffffffffffffffffffffffffffffffffffff168173ffffffffffffffffffffffffffffffffffffffff16141515156200032057600080fd5b6200033b8282620003a6640100000000026401000000009004565b1515156200034857600080fd5b60018260000160008373ffffffffffffffffffffffffffffffffffffffff1673ffffffffffffffffffffffffffffffffffffffff16815260200190815260200160002060006101000a81548160ff0219169083151502179055505050565b60008073ffffffffffffffffffffffffffffffffffffffff168273ffffffffffffffffffffffffffffffffffffffff1614151515620003e457600080fd5b8260000160008373ffffffffffffffffffffffffffffffffffffffff1673ffffffffffffffffffffffffffffffffffffffff16815260200190815260200160002060009054906101000a900460ff16905092915050565b612ae2806200044b6000396000f30060806040526004361061015f576000357c0100000000000000000000000000000000000000000000000000000000900463ffffffff168063112940f9146101645780632d923561146101a757806341c0e1b5146101de57806349dae766146101f55780635da09b881461022257806361c7d59f1461027d57806361e6982d1461045c578063644241db1461047357806366225ff91461048a578063715018a6146105ec5780637250e2241461060357806377c459131461064657806380c3f96d146108a457806380fc0ce4146108e7578063834ff739146108fe5780638da5cb5b146109595780638ec4f505146109b05780638f0c86fa146109f35780638f32d59b14610a4e578063a26be99914610a7d578063b942906914610aaa578063d38ea5bf14610b05578063db0e6a2f14610b32578063e7fb74c714610b49578063f2fde38b14610b69578063f30fc48014610bac578063f61c899a14610bd9575b600080fd5b34801561017057600080fd5b506101a5600480360381019080803573ffffffffffffffffffffffffffffffffffffffff169060200190929190505050610c06565b005b3480156101b357600080fd5b506101dc6004803603810190808035906020019092919080359060200190929190505050610c8f565b005b3480156101ea57600080fd5b506101f3610db7565b005b34801561020157600080fd5b5061022060048036038101908080359060200190929190505050610ddf565b005b34801561022e57600080fd5b50610263600480360381019080803573ffffffffffffffffffffffffffffffffffffffff169060200190929190505050610ed7565b604051808215151515815260200191505060405180910390f35b34801561028957600080fd5b5061045a60048036038101908080359060200190929190803573ffffffffffffffffffffffffffffffffffffffff169060200190929190803573ffffffffffffffffffffffffffffffffffffffff169060200190929190803590602001908201803590602001908080601f0160208091040260200160405190810160405280939291908181526020018383808284378201915050505050509192919290803590602001908201803590602001908080601f0160208091040260200160405190810160405280939291908181526020018383808284378201915050505050509192919290803590602001908201803590602001908080601f0160208091040260200160405190810160405280939291908181526020018383808284378201915050505050509192919290803590602001908201803590602001908080601f016020809104026020016040519081016040528093929190818152602001838380828437820191505050505050919291929080359060200190929190803590602001908201803590602001908080601f016020809104026020016040519081016040528093929190818152602001838380828437820191505050505050919291929080359060200190929190505050610ef4565b005b34801561046857600080fd5b506104716112a2565b005b34801561047f57600080fd5b506104886112ad565b005b34801561049657600080fd5b506104b5600480360381019080803590602001909291905050506112b8565b604051808a8152602001898152602001888152602001806020018781526020018681526020018573ffffffffffffffffffffffffffffffffffffffff1673ffffffffffffffffffffffffffffffffffffffff1681526020018473ffffffffffffffffffffffffffffffffffffffff1673ffffffffffffffffffffffffffffffffffffffff1681526020018373ffffffffffffffffffffffffffffffffffffffff1673ffffffffffffffffffffffffffffffffffffffff168152602001828103825288818151815260200191508051906020019080838360005b838110156105a957808201518184015260208101905061058e565b50505050905090810190601f1680156105d65780820380516001836020036101000a031916815260200191505b509a505050505050505050505060405180910390f35b3480156105f857600080fd5b506106016114e0565b005b34801561060f57600080fd5b50610644600480360381019080803573ffffffffffffffffffffffffffffffffffffffff169060200190929190505050611641565b005b34801561065257600080fd5b506106716004803603810190808035906020019092919050505061166c565b604051808981526020018881526020018773ffffffffffffffffffffffffffffffffffffffff1673ffffffffffffffffffffffffffffffffffffffff1681526020018673ffffffffffffffffffffffffffffffffffffffff1673ffffffffffffffffffffffffffffffffffffffff16815260200180602001806020018060200180602001858103855289818151815260200191508051906020019080838360005b8381101561072d578082015181840152602081019050610712565b50505050905090810190601f16801561075a5780820380516001836020036101000a031916815260200191505b50858103845288818151815260200191508051906020019080838360005b83811015610793578082015181840152602081019050610778565b50505050905090810190601f1680156107c05780820380516001836020036101000a031916815260200191505b50858103835287818151815260200191508051906020019080838360005b838110156107f95780820151818401526020810190506107de565b50505050905090810190601f1680156108265780820380516001836020036101000a031916815260200191505b50858103825286818151815260200191508051906020019080838360005b8381101561085f578082015181840152602081019050610844565b50505050905090810190601f16801561088c5780820380516001836020036101000a031916815260200191505b509c5050505050505050505050505060405180910390f35b3480156108b057600080fd5b506108e5600480360381019080803573ffffffffffffffffffffffffffffffffffffffff169060200190929190505050611a03565b005b3480156108f357600080fd5b506108fc611a23565b005b34801561090a57600080fd5b5061093f600480360381019080803573ffffffffffffffffffffffffffffffffffffffff169060200190929190505050611a2e565b604051808215151515815260200191505060405180910390f35b34801561096557600080fd5b5061096e611a4b565b604051808273ffffffffffffffffffffffffffffffffffffffff1673ffffffffffffffffffffffffffffffffffffffff16815260200191505060405180910390f35b3480156109bc57600080fd5b506109f1600480360381019080803573ffffffffffffffffffffffffffffffffffffffff169060200190929190505050611a74565b005b3480156109ff57600080fd5b50610a34600480360381019080803573ffffffffffffffffffffffffffffffffffffffff169060200190929190505050611a9f565b604051808215151515815260200191505060405180910390f35b348015610a5a57600080fd5b50610a63611abc565b604051808215151515815260200191505060405180910390f35b348015610a8957600080fd5b50610aa860048036038101908080359060200190929190505050611b13565b005b348015610ab657600080fd5b50610aeb600480360381019080803573ffffffffffffffffffffffffffffffffffffffff169060200190929190505050611c98565b604051808215151515815260200191505060405180910390f35b348015610b1157600080fd5b50610b3060048036038101908080359060200190929190505050611cb5565b005b348015610b3e57600080fd5b50610b47611e97565b005b610b6760048036038101908080359060200190929190505050611ea2565b005b348015610b7557600080fd5b50610baa600480360381019080803573ffffffffffffffffffffffffffffffffffffffff169060200190929190505050612189565b005b348015610bb857600080fd5b50610bd760048036038101908080359060200190929190505050612237565b005b348015610be557600080fd5b50610c0460048036038101908080359060200190929190505050612343565b005b610c0f33611a2e565b1515610c83576040517f08c379a00000000000000000000000000000000000000000000000000000000081526004018080602001828103825260188152602001807f53656e646572206973206e6f74206120636f6e73756d6572000000000000000081525060200191505060405180910390fd5b610c8c8161245a565b50565b8160026007811115610c9d57fe5b60076000838152602001908152602001600020600b0160009054906101000a900460ff166007811115610ccc57fe5b141515610cd857600080fd5b338073ffffffffffffffffffffffffffffffffffffffff163373ffffffffffffffffffffffffffffffffffffffff16141515610d1357600080fd5b610d1c33611c98565b1515610d2757600080fd5b600360076000868152602001908152602001600020600b0160006101000a81548160ff02191690836007811115610d5a57fe5b02179055508260076000868152602001908152602001600020600a01819055507fa96ae0fc3224ebd79eebfe54bd130cc9cb94416cddd1f2386115e00b72532468846040518082815260200191505060405180910390a150505050565b610dbf611abc565b15610ddd573373ffffffffffffffffffffffffffffffffffffffff16ff5b565b8060006007811115610ded57fe5b60076000838152602001908152602001600020600b0160009054906101000a900460ff166007811115610e1c57fe5b141515610e2857600080fd5b338073ffffffffffffffffffffffffffffffffffffffff163373ffffffffffffffffffffffffffffffffffffffff16141515610e6357600080fd5b600160076000858152602001908152602001600020600b0160006101000a81548160ff02191690836007811115610e9657fe5b02179055507f5afe3b1bf87069693c075da5c22a98d63d1aef98a30dbbe538d0781a98b77ee5836040518082815260200191505060405180910390a1505050565b6000610eed8260036124d490919063ffffffff16565b9050919050565b610efd33611c98565b1515610f0857600080fd5b6101e06040519081016040528060065481526020018b81526020018a73ffffffffffffffffffffffffffffffffffffffff1681526020018973ffffffffffffffffffffffffffffffffffffffff1681526020018881526020018781526020018681526020018581526020016006548c0181526020018381526020016000815260200160006007811115610f9757fe5b8152602001600073ffffffffffffffffffffffffffffffffffffffff168152602001600073ffffffffffffffffffffffffffffffffffffffff168152602001600073ffffffffffffffffffffffffffffffffffffffff16815250600760008c8152602001908152602001600020600082015181600001556020820151816001015560408201518160020160006101000a81548173ffffffffffffffffffffffffffffffffffffffff021916908373ffffffffffffffffffffffffffffffffffffffff16021790555060608201518160030160006101000a81548173ffffffffffffffffffffffffffffffffffffffff021916908373ffffffffffffffffffffffffffffffffffffffff16021790555060808201518160040190805190602001906110c2929190612a11565b5060a08201518160050190805190602001906110df929190612a11565b5060c08201518160060190805190602001906110fc929190612a11565b5060e0820151816007019080519060200190611119929190612a11565b506101008201518160080155610120820151816009019080519060200190611142929190612a11565b5061014082015181600a015561016082015181600b0160006101000a81548160ff0219169083600781111561117357fe5b021790555061018082015181600b0160016101000a81548173ffffffffffffffffffffffffffffffffffffffff021916908373ffffffffffffffffffffffffffffffffffffffff1602179055506101a082015181600c0160006101000a81548173ffffffffffffffffffffffffffffffffffffffff021916908373ffffffffffffffffffffffffffffffffffffffff1602179055506101c082015181600d0160006101000a81548173ffffffffffffffffffffffffffffffffffffffff021916908373ffffffffffffffffffffffffffffffffffffffff1602179055509050506001600654016006819055507f8e55ccfc9778ff8eba1646d765cf1982537ce0f9257054a17b48aad7452501838a6040518082815260200191505060405180910390a150505050505050505050565b6112ab33612568565b565b6112b6336125e2565b565b600080600060606000806000806000600760008b8152602001908152602001600020600001549850600760008b8152602001908152602001600020600101549750600760008b8152602001908152602001600020600801549650600760008b81526020019081526020016000206009018054600181600116156101000203166002900480601f0160208091040260200160405190810160405280929190818152602001828054600181600116156101000203166002900480156113bc5780601f10611391576101008083540402835291602001916113bc565b820191906000526020600020905b81548152906001019060200180831161139f57829003601f168201915b50505050509550600760008b8152602001908152602001600020600a01549450600760008b8152602001908152602001600020600b0160009054906101000a900460ff16600781111561140b57fe5b9350600760008b8152602001908152602001600020600b0160019054906101000a900473ffffffffffffffffffffffffffffffffffffffff169250600760008b8152602001908152602001600020600c0160009054906101000a900473ffffffffffffffffffffffffffffffffffffffff169150600760008b8152602001908152602001600020600d0160009054906101000a900473ffffffffffffffffffffffffffffffffffffffff1690508888888888888888889850985098509850985098509850985098509193959799909294969850565b6114e8611abc565b1515611582576040517f08c379a00000000000000000000000000000000000000000000000000000000081526004018080602001828103825260278152602001807f43616c6c6572206973206e6f7420746865206f776e6572206f6620746865206381526020017f6f6e74726163740000000000000000000000000000000000000000000000000081525060400191505060405180910390fd5b600073ffffffffffffffffffffffffffffffffffffffff166000809054906101000a900473ffffffffffffffffffffffffffffffffffffffff1673ffffffffffffffffffffffffffffffffffffffff167f5c486528ec3e3f0ea91181cff8116f02bfa350e03b8b6f12e00765adbb5af85c60405160405180910390a360008060006101000a81548173ffffffffffffffffffffffffffffffffffffffff021916908373ffffffffffffffffffffffffffffffffffffffff160217905550565b6116553360026124d490919063ffffffff16565b151561166057600080fd5b6116698161265c565b50565b600080600080606080606080600760008a8152602001908152602001600020600001549750600760008a8152602001908152602001600020600101549650600760008a815260200190815260200160002060020160009054906101000a900473ffffffffffffffffffffffffffffffffffffffff169550600760008a815260200190815260200160002060030160009054906101000a900473ffffffffffffffffffffffffffffffffffffffff169450600760008a81526020019081526020016000206004018054600181600116156101000203166002900480601f0160208091040260200160405190810160405280929190818152602001828054600181600116156101000203166002900480156117c65780601f1061179b576101008083540402835291602001916117c6565b820191906000526020600020905b8154815290600101906020018083116117a957829003601f168201915b50505050509350600760008a81526020019081526020016000206005018054600181600116156101000203166002900480601f0160208091040260200160405190810160405280929190818152602001828054600181600116156101000203166002900480156118775780601f1061184c57610100808354040283529160200191611877565b820191906000526020600020905b81548152906001019060200180831161185a57829003601f168201915b50505050509250600760008a81526020019081526020016000206006018054600181600116156101000203166002900480601f0160208091040260200160405190810160405280929190818152602001828054600181600116156101000203166002900480156119285780601f106118fd57610100808354040283529160200191611928565b820191906000526020600020905b81548152906001019060200180831161190b57829003601f168201915b50505050509150600760008a81526020019081526020016000206007018054600181600116156101000203166002900480601f0160208091040260200160405190810160405280929190818152602001828054600181600116156101000203166002900480156119d95780601f106119ae576101008083540402835291602001916119d9565b820191906000526020600020905b8154815290600101906020018083116119bc57829003601f168201915b50505050509050878787878787878797509750975097509750975097509750919395975091939597565b611a0c33611c98565b1515611a1757600080fd5b611a20816126d6565b50565b611a2c33612730565b565b6000611a448260046124d490919063ffffffff16565b9050919050565b60008060009054906101000a900473ffffffffffffffffffffffffffffffffffffffff16905090565b611a883360036124d490919063ffffffff16565b1515611a9357600080fd5b611a9c8161278a565b50565b6000611ab58260026124d490919063ffffffff16565b9050919050565b60008060009054906101000a900473ffffffffffffffffffffffffffffffffffffffff1673ffffffffffffffffffffffffffffffffffffffff163373ffffffffffffffffffffffffffffffffffffffff1614905090565b8060056007811115611b2157fe5b60076000838152602001908152602001600020600b0160009054906101000a900460ff166007811115611b5057fe5b141515611b5c57600080fd5b611b703360036124d490919063ffffffff16565b1515611b7b57600080fd5b336007600084815260200190815260200160002060020160006101000a81548173ffffffffffffffffffffffffffffffffffffffff021916908373ffffffffffffffffffffffffffffffffffffffff160217905550600660076000848152602001908152602001600020600b0160006101000a81548160ff02191690836007811115611c0357fe5b02179055503360076000848152602001908152602001600020600c0160006101000a81548173ffffffffffffffffffffffffffffffffffffffff021916908373ffffffffffffffffffffffffffffffffffffffff1602179055507fa8142743f8f70a4c26f3691cf4ed59718381fb2f18070ec52be1f1022d855557826040518082815260200191505060405180910390a15050565b6000611cae8260016124d490919063ffffffff16565b9050919050565b8060066007811115611cc357fe5b60076000838152602001908152602001600020600b0160009054906101000a900460ff166007811115611cf257fe5b141515611cfe57600080fd5b611d0733611a2e565b1515611d7b576040517f08c379a00000000000000000000000000000000000000000000000000000000081526004018080602001828103825260188152602001807f53656e646572206973206e6f74206120636f6e73756d6572000000000000000081525060200191505060405180910390fd5b336007600084815260200190815260200160002060020160006101000a81548173ffffffffffffffffffffffffffffffffffffffff021916908373ffffffffffffffffffffffffffffffffffffffff1602179055506007806000848152602001908152602001600020600b0160006101000a81548160ff02191690836007811115611e0257fe5b02179055503360076000848152602001908152602001600020600d0160006101000a81548173ffffffffffffffffffffffffffffffffffffffff021916908373ffffffffffffffffffffffffffffffffffffffff1602179055507f653d56639fee6b566a5c804764e9689de38645f0b733df89a36a1b7b42173dd8826040518082815260200191505060405180910390a15050565b611ea0336127a1565b565b60008160036007811115611eb257fe5b60076000838152602001908152602001600020600b0160009054906101000a900460ff166007811115611ee157fe5b141515611eed57600080fd5b60076000848152602001908152602001600020600a0154803410151515611f1357600080fd5b83600080611f2b3360026124d490919063ffffffff16565b1515611f3657600080fd5b336007600089815260200190815260200160002060020160006101000a81548173ffffffffffffffffffffffffffffffffffffffff021916908373ffffffffffffffffffffffffffffffffffffffff160217905550600460076000898152602001908152602001600020600b0160006101000a81548160ff02191690836007811115611fbe57fe5b02179055503360076000898152602001908152602001600020600b0160016101000a81548173ffffffffffffffffffffffffffffffffffffffff021916908373ffffffffffffffffffffffffffffffffffffffff16021790555060076000888152602001908152602001600020600a015495506007600088815260200190815260200160002060030160009054906101000a900473ffffffffffffffffffffffffffffffffffffffff1673ffffffffffffffffffffffffffffffffffffffff166108fc879081150290604051600060405180830381858888f193505050501580156120ad573d6000803e3d6000fd5b507f92f64ca637d023f354075a4be751b169c1a8a9ccb6d33cdd0cb3520543995727876040518082815260200191505060405180910390a160076000848152602001908152602001600020600a01549150813403905060076000848152602001908152602001600020600d0160009054906101000a900473ffffffffffffffffffffffffffffffffffffffff1673ffffffffffffffffffffffffffffffffffffffff166108fc829081150290604051600060405180830381858888f1935050505015801561217f573d6000803e3d6000fd5b5050505050505050565b612191611abc565b151561222b576040517f08c379a00000000000000000000000000000000000000000000000000000000081526004018080602001828103825260278152602001807f43616c6c6572206973206e6f7420746865206f776e6572206f6620746865206381526020017f6f6e74726163740000000000000000000000000000000000000000000000000081525060400191505060405180910390fd5b612234816127b8565b50565b806001600781111561224557fe5b60076000838152602001908152602001600020600b0160009054906101000a900460ff16600781111561227457fe5b14151561228057600080fd5b338073ffffffffffffffffffffffffffffffffffffffff163373ffffffffffffffffffffffffffffffffffffffff161415156122bb57600080fd5b6122c433611c98565b15156122cf57600080fd5b600260076000858152602001908152602001600020600b0160006101000a81548160ff0219169083600781111561230257fe5b02179055507f9b3b66e2380b690bae22c73ef1428fb0c91e72fe14a4b6defa13035214187aff836040518082815260200191505060405180910390a1505050565b806004600781111561235157fe5b60076000838152602001908152602001600020600b0160009054906101000a900460ff16600781111561238057fe5b14151561238c57600080fd5b338073ffffffffffffffffffffffffffffffffffffffff163373ffffffffffffffffffffffffffffffffffffffff161415156123c757600080fd5b6123db3360026124d490919063ffffffff16565b15156123e657600080fd5b600560076000858152602001908152602001600020600b0160006101000a81548160ff0219169083600781111561241957fe5b02179055507ff00b9a5725b80c54016f42114f6ed7792d22eecb116011c4afac29c57bef6c95836040518082815260200191505060405180910390a1505050565b61246e8160046128b290919063ffffffff16565b7f28b26e7a3d20aedbc5f8f2ebf7da671c0491723a2b78f47a097b0e46dee0714281604051808273ffffffffffffffffffffffffffffffffffffffff1673ffffffffffffffffffffffffffffffffffffffff16815260200191505060405180910390a150565b60008073ffffffffffffffffffffffffffffffffffffffff168273ffffffffffffffffffffffffffffffffffffffff161415151561251157600080fd5b8260000160008373ffffffffffffffffffffffffffffffffffffffff1673ffffffffffffffffffffffffffffffffffffffff16815260200190815260200160002060009054906101000a900460ff16905092915050565b61257c81600461296290919063ffffffff16565b7fe3f5ed5f263f1f01764a96edfc7d025f511ec5f7d180e8816908b78bcf74f09881604051808273ffffffffffffffffffffffffffffffffffffffff1673ffffffffffffffffffffffffffffffffffffffff16815260200191505060405180910390a150565b6125f681600261296290919063ffffffff16565b7f126174f6cf49c81cdb4a9214c6b8f037bef55b4ec31e4fc776cea2a1c8a88d5981604051808273ffffffffffffffffffffffffffffffffffffffff1673ffffffffffffffffffffffffffffffffffffffff16815260200191505060405180910390a150565b6126708160026128b290919063ffffffff16565b7fddbf200aa634dc3fb81cfd68583dd1040d1c751d335e1d86b631bde3e977fea881604051808273ffffffffffffffffffffffffffffffffffffffff1673ffffffffffffffffffffffffffffffffffffffff16815260200191505060405180910390a150565b6126ea8160016128b290919063ffffffff16565b8073ffffffffffffffffffffffffffffffffffffffff167f2e0ded4123377a3c2bc9a26f1717655a129e2f20752924d42e730ec89c83dbd060405160405180910390a250565b61274481600161296290919063ffffffff16565b8073ffffffffffffffffffffffffffffffffffffffff167fa5e0f060af304ab17dd418c7927e3da3ae7868189bf387aee09ab179ccc572f260405160405180910390a250565b61279e8160036128b290919063ffffffff16565b50565b6127b581600361296290919063ffffffff16565b50565b600073ffffffffffffffffffffffffffffffffffffffff168173ffffffffffffffffffffffffffffffffffffffff16141515156127f457600080fd5b8073ffffffffffffffffffffffffffffffffffffffff166000809054906101000a900473ffffffffffffffffffffffffffffffffffffffff1673ffffffffffffffffffffffffffffffffffffffff167f5c486528ec3e3f0ea91181cff8116f02bfa350e03b8b6f12e00765adbb5af85c60405160405180910390a3806000806101000a81548173ffffffffffffffffffffffffffffffffffffffff021916908373ffffffffffffffffffffffffffffffffffffffff16021790555050565b600073ffffffffffffffffffffffffffffffffffffffff168173ffffffffffffffffffffffffffffffffffffffff16141515156128ee57600080fd5b6128f882826124d4565b15151561290457600080fd5b60018260000160008373ffffffffffffffffffffffffffffffffffffffff1673ffffffffffffffffffffffffffffffffffffffff16815260200190815260200160002060006101000a81548160ff0219169083151502179055505050565b600073ffffffffffffffffffffffffffffffffffffffff168173ffffffffffffffffffffffffffffffffffffffff161415151561299e57600080fd5b6129a882826124d4565b15156129b357600080fd5b60008260000160008373ffffffffffffffffffffffffffffffffffffffff1673ffffffffffffffffffffffffffffffffffffffff16815260200190815260200160002060006101000a81548160ff0219169083151502179055505050565b828054600181600116156101000203166002900490600052602060002090601f016020900481019282601f10612a5257805160ff1916838001178555612a80565b82800160010185558215612a80579182015b82811115612a7f578251825591602001919060010190612a64565b5b509050612a8d9190612a91565b5090565b612ab391905b80821115612aaf576000816000905550600101612a97565b5090565b905600a165627a7a723058201fc8b211c9f710e71c8969e6249b8accfb017d8ed11670d2e8ef9509a646ce7b0029",
  "source": "pragma solidity ^0.4.24;\r\n\r\nimport \"../coffeecore/Ownable.sol\";\r\nimport \"../coffeeaccesscontrol/FarmerRole.sol\";\r\nimport \"../coffeeaccesscontrol/DistributorRole.sol\";\r\nimport \"../coffeeaccesscontrol/RetailerRole.sol\";\r\nimport \"../coffeeaccesscontrol/ConsumerRole.sol\";\r\n\r\n// Define a contract 'Supplychain'\r\ncontract SupplyChain is\r\n    Ownable,\r\n    FarmerRole,\r\n    DistributorRole,\r\n    RetailerRole,\r\n    ConsumerRole\r\n{\r\n    // Define 'owner'\r\n    // address owner;\r\n\r\n    // Define a variable called 'upc' for Universal Product Code (UPC)\r\n    uint256 upc;\r\n\r\n    // Define a variable called 'sku' for Stock Keeping Unit (SKU)\r\n    uint256 sku;\r\n\r\n    // Define a public mapping 'items' that maps the UPC to an Item.\r\n    mapping(uint256 => Item) items;\r\n\r\n    // Define a public mapping 'itemsHistory' that maps the UPC to an array of TxHash,\r\n    // that track its journey through the supply chain -- to be sent from DApp.\r\n    mapping(uint256 => string[]) itemsHistory;\r\n\r\n    // Define enum 'State' with the following values:\r\n    enum State {\r\n        Harvested, // 0\r\n        Processed, // 1\r\n        Packed, // 2\r\n        ForSale, // 3\r\n        Sold, // 4\r\n        Shipped, // 5\r\n        Received, // 6\r\n        Purchased // 7\r\n    }\r\n\r\n    State constant defaultState = State.Harvested;\r\n\r\n    // Define a struct 'Item' with the following fields:\r\n    struct Item {\r\n        uint256 sku; // Stock Keeping Unit (SKU)\r\n        uint256 upc; // Universal Product Code (UPC), generated by the Farmer, goes on the package, can be verified by the Consumer\r\n        address ownerID; // Metamask-Ethereum address of the current owner as the product moves through 8 stages\r\n        address originFarmerID; // Metamask-Ethereum address of the Farmer\r\n        string originFarmName; // Farmer Name\r\n        string originFarmInformation; // Farmer Information\r\n        string originFarmLatitude; // Farm Latitude\r\n        string originFarmLongitude; // Farm Longitude\r\n        uint256 productID; // Product ID potentially a combination of upc + sku\r\n        string productNotes; // Product Notes\r\n        uint256 productPrice; // Product Price\r\n        State itemState; // Product State as represented in the enum above\r\n        address distributorID; // Metamask-Ethereum address of the Distributor\r\n        address retailerID; // Metamask-Ethereum address of the Retailer\r\n        address consumerID; // Metamask-Ethereum address of the Consumer\r\n    }\r\n\r\n    // Define 8 events with the same 8 state values and accept 'upc' as input argument\r\n    event Harvested(uint256 upc);\r\n    event Processed(uint256 upc);\r\n    event Packed(uint256 upc);\r\n    event ForSale(uint256 upc);\r\n    event Sold(uint256 upc);\r\n    event Shipped(uint256 upc);\r\n    event Received(uint256 upc);\r\n    event Purchased(uint256 upc);\r\n\r\n    // Define a modifer that checks to see if msg.sender == owner of the contract\r\n    modifier onlyOwner() {\r\n        // require(msg.sender == owner);\r\n        require(isOwner(), \"Caller is not the owner of the contract\");\r\n        _;\r\n    }\r\n\r\n    // Define a modifer that verifies the Caller\r\n    modifier verifyCaller(address _address) {\r\n        require(msg.sender == _address);\r\n        _;\r\n    }\r\n\r\n    // Define a modifier that checks if the paid amount is sufficient to cover the price\r\n    modifier paidEnough(uint256 _price) {\r\n        require(msg.value >= _price);\r\n        _;\r\n    }\r\n\r\n    // Define a modifier that checks the price and refunds the remaining balance\r\n    modifier checkValue(uint256 _upc) {\r\n        _;\r\n        uint256 _price = items[_upc].productPrice;\r\n        uint256 amountToReturn = msg.value - _price;\r\n        items[_upc].consumerID.transfer(amountToReturn);\r\n    }\r\n\r\n    // Define a modifier that checks if an item.state of a upc is Harvested\r\n    modifier harvested(uint256 _upc) {\r\n        require(items[_upc].itemState == State.Harvested);\r\n        _;\r\n    }\r\n\r\n    // Define a modifier that checks if an item.state of a upc is Processed\r\n    modifier processed(uint256 _upc) {\r\n        require(items[_upc].itemState == State.Processed);\r\n        _;\r\n    }\r\n\r\n    // Define a modifier that checks if an item.state of a upc is Packed\r\n    modifier packed(uint256 _upc) {\r\n        require(items[_upc].itemState == State.Packed);\r\n        _;\r\n    }\r\n\r\n    // Define a modifier that checks if an item.state of a upc is ForSale\r\n    modifier forSale(uint256 _upc) {\r\n        require(items[_upc].itemState == State.ForSale);\r\n        _;\r\n    }\r\n\r\n    // Define a modifier that checks if an item.state of a upc is Sold\r\n    modifier sold(uint256 _upc) {\r\n        require(items[_upc].itemState == State.Sold);\r\n        _;\r\n    }\r\n\r\n    // Define a modifier that checks if an item.state of a upc is Shipped\r\n    modifier shipped(uint256 _upc) {\r\n        require(items[_upc].itemState == State.Shipped);\r\n        _;\r\n    }\r\n\r\n    // Define a modifier that checks if an item.state of a upc is Received\r\n    modifier received(uint256 _upc) {\r\n        require(items[_upc].itemState == State.Received);\r\n        _;\r\n    }\r\n\r\n    // Define a modifier that checks if an item.state of a upc is Purchased\r\n    modifier purchased(uint256 _upc) {\r\n        require(items[_upc].itemState == State.Purchased);\r\n        _;\r\n    }\r\n\r\n    // In the constructor set 'owner' to the address that instantiated the contract\r\n    // and set 'sku' to 1\r\n    // and set 'upc' to 1\r\n    constructor() public payable {\r\n        // owner = msg.sender;\r\n        sku = 1;\r\n        upc = 1;\r\n    }\r\n\r\n    // Define a function 'kill' if required\r\n    function kill() public {\r\n        if (isOwner()) {\r\n            selfdestruct(msg.sender);\r\n        }\r\n    }\r\n\r\n    // Define a function 'harvestItem' that allows a farmer to mark an item 'Harvested'\r\n    function harvestItem(\r\n        uint256 _upc,\r\n        address _ownerID,\r\n        address _originFarmerID,\r\n        string _originFarmName,\r\n        string _originFarmInformation,\r\n        string _originFarmLatitude,\r\n        string _originFarmLongitude,\r\n        uint256 _productID,\r\n        string _productNotes,\r\n        uint256 _productPrice\r\n    ) public onlyFarmer {\r\n        // Add the new item as part of Harvest\r\n        items[_upc] = Item({\r\n            sku: sku,\r\n            upc: _upc,\r\n            ownerID: _ownerID,\r\n            originFarmerID: _originFarmerID,\r\n            originFarmName: _originFarmName,\r\n            originFarmInformation: _originFarmInformation,\r\n            originFarmLatitude: _originFarmLatitude,\r\n            originFarmLongitude: _originFarmLongitude,\r\n            productID: _upc + sku,\r\n            productNotes: _productNotes,\r\n            productPrice: 0,\r\n            itemState: State.Harvested,\r\n            distributorID: address(0),\r\n            retailerID: address(0),\r\n            consumerID: address(0)\r\n        });\r\n        // Increment sku\r\n        sku = sku + 1;\r\n        // Emit the appropriate event\r\n        emit Harvested(_upc);\r\n    }\r\n\r\n    // Define a function 'processtItem' that allows a farmer to mark an item 'Processed'\r\n    function processItem(uint256 _upc)\r\n        public\r\n        harvested(_upc)\r\n        verifyCaller(msg.sender)\r\n    {\r\n        // Update the appropriate fields\r\n        items[_upc].itemState = State.Processed;\r\n\r\n        // Emit the appropriate event\r\n        emit Processed(_upc);\r\n    }\r\n\r\n    // Define a function 'packItem' that allows a farmer to mark an item 'Packed'\r\n    function packItem(uint256 _upc)\r\n        public\r\n        processed(_upc)\r\n        verifyCaller(msg.sender)\r\n        onlyFarmer\r\n    {\r\n        // Update the appropriate fields\r\n        items[_upc].itemState = State.Packed;\r\n\r\n        // Emit the appropriate event\r\n        emit Packed(_upc);\r\n    }\r\n\r\n    // Define a function 'sellItem' that allows a farmer to mark an item 'ForSale'\r\n    function sellItem(uint256 _upc, uint256 _price)\r\n        public\r\n        packed(_upc)\r\n        verifyCaller(msg.sender)\r\n        onlyFarmer\r\n    {\r\n        // Update the appropriate fields\r\n        items[_upc].itemState = State.ForSale;\r\n        items[_upc].productPrice = _price;\r\n\r\n        // Emit the appropriate event\r\n        emit ForSale(_upc);\r\n    }\r\n\r\n    // Define a function 'buyItem' that allows the disributor to mark an item 'Sold'\r\n    // Use the above defined modifiers to check if the item is available for sale, if the buyer has paid enough,\r\n    // and any excess ether sent is refunded back to the buyer\r\n    function buyItem(uint256 _upc)\r\n        public\r\n        payable\r\n        forSale(_upc)\r\n        paidEnough(items[_upc].productPrice)\r\n        checkValue(_upc)\r\n        onlyDistributor\r\n    {\r\n        // Update the appropriate fields - ownerID, distributorID, itemState\r\n        items[_upc].ownerID = msg.sender;\r\n        items[_upc].itemState = State.Sold;\r\n        items[_upc].distributorID = msg.sender;\r\n\r\n        // Transfer money to farmer\r\n        uint256 price = items[_upc].productPrice;\r\n        items[_upc].originFarmerID.transfer(price);\r\n\r\n        // emit the appropriate event\r\n        emit Sold(_upc);\r\n    }\r\n\r\n    // Define a function 'shipItem' that allows the distributor to mark an item 'Shipped'\r\n    // Use the above modifers to check if the item is sold\r\n    function shipItem(uint256 _upc)\r\n        public\r\n        sold(_upc)\r\n        verifyCaller(msg.sender)\r\n        onlyDistributor\r\n    {\r\n        // Update the appropriate fields\r\n        items[_upc].itemState = State.Shipped;\r\n\r\n        // Emit the appropriate event\r\n        emit Shipped(_upc);\r\n    }\r\n\r\n    // Define a function 'receiveItem' that allows the retailer to mark an item 'Received'\r\n    // Use the above modifiers to check if the item is shipped\r\n    function receiveItem(uint256 _upc) public shipped(_upc) onlyRetailer {\r\n        // Update the appropriate fields - ownerID, retailerID, itemState\r\n        items[_upc].ownerID = msg.sender;\r\n        items[_upc].itemState = State.Received;\r\n        items[_upc].retailerID = msg.sender;\r\n\r\n        // Emit the appropriate event\r\n        emit Received(_upc);\r\n    }\r\n\r\n    // Define a function 'purchaseItem' that allows the consumer to mark an item 'Purchased'\r\n    // Use the above modifiers to check if the item is received\r\n    function purchaseItem(uint256 _upc) public received(_upc) onlyConsumer {\r\n        // Update the appropriate fields - ownerID, consumerID, itemState\r\n        items[_upc].ownerID = msg.sender;\r\n        items[_upc].itemState = State.Purchased;\r\n        items[_upc].consumerID = msg.sender;\r\n\r\n        // Emit the appropriate event\r\n        emit Purchased(_upc);\r\n    }\r\n\r\n    // Define a function 'fetchItemBufferOne' that fetches the data\r\n    function fetchItemBufferOne(uint256 _upc)\r\n        public\r\n        view\r\n        returns (\r\n            uint256 itemSKU,\r\n            uint256 itemUPC,\r\n            address ownerID,\r\n            address originFarmerID,\r\n            string originFarmName,\r\n            string originFarmInformation,\r\n            string originFarmLatitude,\r\n            string originFarmLongitude\r\n        )\r\n    {\r\n        // Assign values to the 8 parameters\r\n        itemSKU = items[_upc].sku;\r\n        itemUPC = items[_upc].upc;\r\n        ownerID = items[_upc].ownerID;\r\n        originFarmerID = items[_upc].originFarmerID;\r\n        originFarmName = items[_upc].originFarmName;\r\n        originFarmInformation = items[_upc].originFarmInformation;\r\n        originFarmLatitude = items[_upc].originFarmLatitude;\r\n        originFarmLongitude = items[_upc].originFarmLongitude;\r\n\r\n        return (\r\n            itemSKU,\r\n            itemUPC,\r\n            ownerID,\r\n            originFarmerID,\r\n            originFarmName,\r\n            originFarmInformation,\r\n            originFarmLatitude,\r\n            originFarmLongitude\r\n        );\r\n    }\r\n\r\n    // Define a function 'fetchItemBufferTwo' that fetches the data\r\n    function fetchItemBufferTwo(uint256 _upc)\r\n        public\r\n        view\r\n        returns (\r\n            uint256 itemSKU,\r\n            uint256 itemUPC,\r\n            uint256 productID,\r\n            string productNotes,\r\n            uint256 productPrice,\r\n            uint256 itemState,\r\n            address distributorID,\r\n            address retailerID,\r\n            address consumerID\r\n        )\r\n    {\r\n        // Assign values to the 9 parameters\r\n        itemSKU = items[_upc].sku;\r\n        itemUPC = items[_upc].upc;\r\n        productID = items[_upc].productID;\r\n        productNotes = items[_upc].productNotes;\r\n        productPrice = items[_upc].productPrice;\r\n        itemState = uint256(items[_upc].itemState);\r\n        distributorID = items[_upc].distributorID;\r\n        retailerID = items[_upc].retailerID;\r\n        consumerID = items[_upc].consumerID;\r\n\r\n        return (\r\n            itemSKU,\r\n            itemUPC,\r\n            productID,\r\n            productNotes,\r\n            productPrice,\r\n            itemState,\r\n            distributorID,\r\n            retailerID,\r\n            consumerID\r\n        );\r\n    }\r\n}\r\n",
  "sourcePath": "C:\\Users\\litad\\Documents\\Udacity\\Supply Chain dApp\\project03\\project-6\\contracts\\coffeebase\\SupplyChain.sol",
  "compiler": {
    "name": "solc",
    "version": "0.4.24+commit.e67f0147.Emscripten.clang"
  },
  "schemaVersion": "2.0.1",
  "updatedAt": "2022-04-12T07:22:34.690Z"
}